{
  "contractName": "DAODisputeResolution",
  "abi": [
    {
      "inputs": [
        {
          "internalType": "uint256",
          "name": "",
          "type": "uint256"
        }
      ],
      "name": "disputes",
      "outputs": [
        {
          "internalType": "address",
          "name": "freelancer",
          "type": "address"
        },
        {
          "internalType": "address",
          "name": "client",
          "type": "address"
        },
        {
          "internalType": "string",
          "name": "jobDescription",
          "type": "string"
        },
        {
          "internalType": "bool",
          "name": "resolved",
          "type": "bool"
        },
        {
          "internalType": "uint256",
          "name": "votesForFreelancer",
          "type": "uint256"
        },
        {
          "internalType": "uint256",
          "name": "votesForClient",
          "type": "uint256"
        }
      ],
      "stateMutability": "view",
      "type": "function"
    },
    {
      "inputs": [
        {
          "internalType": "address",
          "name": "",
          "type": "address"
        }
      ],
      "name": "members",
      "outputs": [
        {
          "internalType": "bool",
          "name": "",
          "type": "bool"
        }
      ],
      "stateMutability": "view",
      "type": "function"
    },
    {
      "inputs": [
        {
          "internalType": "address",
          "name": "member",
          "type": "address"
        }
      ],
      "name": "addMember",
      "outputs": [],
      "stateMutability": "nonpayable",
      "type": "function"
    },
    {
      "inputs": [
        {
          "internalType": "address",
          "name": "_client",
          "type": "address"
        },
        {
          "internalType": "string",
          "name": "_jobDescription",
          "type": "string"
        }
      ],
      "name": "createDispute",
      "outputs": [],
      "stateMutability": "nonpayable",
      "type": "function"
    },
    {
      "inputs": [
        {
          "internalType": "uint256",
          "name": "disputeId",
          "type": "uint256"
        },
        {
          "internalType": "bool",
          "name": "voteForFreelancer",
          "type": "bool"
        }
      ],
      "name": "vote",
      "outputs": [],
      "stateMutability": "nonpayable",
      "type": "function"
    },
    {
      "inputs": [
        {
          "internalType": "uint256",
          "name": "disputeId",
          "type": "uint256"
        }
      ],
      "name": "resolveDispute",
      "outputs": [],
      "stateMutability": "nonpayable",
      "type": "function"
    }
  ],
  "bytecode": "0x608060405234801561000f575f80fd5b50610fbb8061001d5f395ff3fe608060405234801561000f575f80fd5b5060043610610060575f3560e01c806308ae4b0c14610064578063564a565d14610094578063c2b7b868146100c9578063c9d27afe146100e5578063ca6d56dc14610101578063ead3489a1461011d575b5f80fd5b61007e60048036038101906100799190610793565b610139565b60405161008b91906107d8565b60405180910390f35b6100ae60048036038101906100a99190610824565b610156565b6040516100c0969594939291906108f7565b60405180910390f35b6100e360048036038101906100de9190610824565b61026c565b005b6100ff60048036038101906100fa9190610987565b610400565b005b61011b60048036038101906101169190610793565b610576565b005b61013760048036038101906101329190610af1565b6105cd565b005b6001602052805f5260405f205f915054906101000a900460ff1681565b5f8181548110610164575f80fd5b905f5260205f2090600602015f91509050805f015f9054906101000a900473ffffffffffffffffffffffffffffffffffffffff1690806001015f9054906101000a900473ffffffffffffffffffffffffffffffffffffffff16908060020180546101cd90610b78565b80601f01602080910402602001604051908101604052809291908181526020018280546101f990610b78565b80156102445780601f1061021b57610100808354040283529160200191610244565b820191905f5260205f20905b81548152906001019060200180831161022757829003601f168201915b505050505090806003015f9054906101000a900460ff16908060040154908060050154905086565b5f818154811061027f5761027e610ba8565b5b905f5260205f2090600602016003015f9054906101000a900460ff16156102db576040517f08c379a00000000000000000000000000000000000000000000000000000000081526004016102d290610c1f565b60405180910390fd5b5f8082815481106102ef576102ee610ba8565b5b905f5260205f209060060201905080600501548160040154111561037857805f015f9054906101000a900473ffffffffffffffffffffffffffffffffffffffff1673ffffffffffffffffffffffffffffffffffffffff166108fc4790811502906040515f60405180830381858888f19350505050158015610372573d5f803e3d5ffd5b506103e0565b806001015f9054906101000a900473ffffffffffffffffffffffffffffffffffffffff1673ffffffffffffffffffffffffffffffffffffffff166108fc4790811502906040515f60405180830381858888f193505050501580156103de573d5f803e3d5ffd5b505b6001816003015f6101000a81548160ff0219169083151502179055505050565b60015f3373ffffffffffffffffffffffffffffffffffffffff1673ffffffffffffffffffffffffffffffffffffffff1681526020019081526020015f205f9054906101000a900460ff16610489576040517f08c379a000000000000000000000000000000000000000000000000000000000815260040161048090610c87565b60405180910390fd5b5f828154811061049c5761049b610ba8565b5b905f5260205f2090600602016003015f9054906101000a900460ff16156104f8576040517f08c379a00000000000000000000000000000000000000000000000000000000081526004016104ef90610c1f565b60405180910390fd5b801561053a575f828154811061051157610510610ba8565b5b905f5260205f2090600602016004015f81548092919061053090610cd2565b9190505550610572565b5f828154811061054d5761054c610ba8565b5b905f5260205f2090600602016005015f81548092919061056c90610cd2565b91905055505b5050565b6001805f8373ffffffffffffffffffffffffffffffffffffffff1673ffffffffffffffffffffffffffffffffffffffff1681526020019081526020015f205f6101000a81548160ff02191690831515021790555050565b5f6040518060c001604052803373ffffffffffffffffffffffffffffffffffffffff1681526020018473ffffffffffffffffffffffffffffffffffffffff1681526020018381526020015f151581526020015f81526020015f815250908060018154018082558091505060019003905f5260205f2090600602015f909190919091505f820151815f015f6101000a81548173ffffffffffffffffffffffffffffffffffffffff021916908373ffffffffffffffffffffffffffffffffffffffff1602179055506020820151816001015f6101000a81548173ffffffffffffffffffffffffffffffffffffffff021916908373ffffffffffffffffffffffffffffffffffffffff16021790555060408201518160020190816106ee9190610eb6565b506060820151816003015f6101000a81548160ff0219169083151502179055506080820151816004015560a0820151816005015550505050565b5f604051905090565b5f80fd5b5f80fd5b5f73ffffffffffffffffffffffffffffffffffffffff82169050919050565b5f61076282610739565b9050919050565b61077281610758565b811461077c575f80fd5b50565b5f8135905061078d81610769565b92915050565b5f602082840312156107a8576107a7610731565b5b5f6107b58482850161077f565b91505092915050565b5f8115159050919050565b6107d2816107be565b82525050565b5f6020820190506107eb5f8301846107c9565b92915050565b5f819050919050565b610803816107f1565b811461080d575f80fd5b50565b5f8135905061081e816107fa565b92915050565b5f6020828403121561083957610838610731565b5b5f61084684828501610810565b91505092915050565b61085881610758565b82525050565b5f81519050919050565b5f82825260208201905092915050565b5f5b8381101561089557808201518184015260208101905061087a565b5f8484015250505050565b5f601f19601f8301169050919050565b5f6108ba8261085e565b6108c48185610868565b93506108d4818560208601610878565b6108dd816108a0565b840191505092915050565b6108f1816107f1565b82525050565b5f60c08201905061090a5f83018961084f565b610917602083018861084f565b818103604083015261092981876108b0565b905061093860608301866107c9565b61094560808301856108e8565b61095260a08301846108e8565b979650505050505050565b610966816107be565b8114610970575f80fd5b50565b5f813590506109818161095d565b92915050565b5f806040838503121561099d5761099c610731565b5b5f6109aa85828601610810565b92505060206109bb85828601610973565b9150509250929050565b5f80fd5b5f80fd5b7f4e487b71000000000000000000000000000000000000000000000000000000005f52604160045260245ffd5b610a03826108a0565b810181811067ffffffffffffffff82111715610a2257610a216109cd565b5b80604052505050565b5f610a34610728565b9050610a4082826109fa565b919050565b5f67ffffffffffffffff821115610a5f57610a5e6109cd565b5b610a68826108a0565b9050602081019050919050565b828183375f83830152505050565b5f610a95610a9084610a45565b610a2b565b905082815260208101848484011115610ab157610ab06109c9565b5b610abc848285610a75565b509392505050565b5f82601f830112610ad857610ad76109c5565b5b8135610ae8848260208601610a83565b91505092915050565b5f8060408385031215610b0757610b06610731565b5b5f610b148582860161077f565b925050602083013567ffffffffffffffff811115610b3557610b34610735565b5b610b4185828601610ac4565b9150509250929050565b7f4e487b71000000000000000000000000000000000000000000000000000000005f52602260045260245ffd5b5f6002820490506001821680610b8f57607f821691505b602082108103610ba257610ba1610b4b565b5b50919050565b7f4e487b71000000000000000000000000000000000000000000000000000000005f52603260045260245ffd5b7f4469737075746520616c7265616479207265736f6c76656400000000000000005f82015250565b5f610c09601883610868565b9150610c1482610bd5565b602082019050919050565b5f6020820190508181035f830152610c3681610bfd565b9050919050565b7f4f6e6c792044414f206d656d626572732063616e20766f7465000000000000005f82015250565b5f610c71601983610868565b9150610c7c82610c3d565b602082019050919050565b5f6020820190508181035f830152610c9e81610c65565b9050919050565b7f4e487b71000000000000000000000000000000000000000000000000000000005f52601160045260245ffd5b5f610cdc826107f1565b91507fffffffffffffffffffffffffffffffffffffffffffffffffffffffffffffffff8203610d0e57610d0d610ca5565b5b600182019050919050565b5f819050815f5260205f209050919050565b5f6020601f8301049050919050565b5f82821b905092915050565b5f60088302610d757fffffffffffffffffffffffffffffffffffffffffffffffffffffffffffffffff82610d3a565b610d7f8683610d3a565b95508019841693508086168417925050509392505050565b5f819050919050565b5f610dba610db5610db0846107f1565b610d97565b6107f1565b9050919050565b5f819050919050565b610dd383610da0565b610de7610ddf82610dc1565b848454610d46565b825550505050565b5f90565b610dfb610def565b610e06818484610dca565b505050565b5b81811015610e2957610e1e5f82610df3565b600181019050610e0c565b5050565b601f821115610e6e57610e3f81610d19565b610e4884610d2b565b81016020851015610e57578190505b610e6b610e6385610d2b565b830182610e0b565b50505b505050565b5f82821c905092915050565b5f610e8e5f1984600802610e73565b1980831691505092915050565b5f610ea68383610e7f565b9150826002028217905092915050565b610ebf8261085e565b67ffffffffffffffff811115610ed857610ed76109cd565b5b610ee28254610b78565b610eed828285610e2d565b5f60209050601f831160018114610f1e575f8415610f0c578287015190505b610f168582610e9b565b865550610f7d565b601f198416610f2c86610d19565b5f5b82811015610f5357848901518255600182019150602085019450602081019050610f2e565b86831015610f705784890151610f6c601f891682610e7f565b8355505b6001600288020188555050505b50505050505056fea2646970667358221220b5b9267e03bac742c4fb8cf9d1ac5c23e8435c915f7122f85dcce2d5fcf4032b64736f6c63430008150033",
  "immutableReferences": {},
  "source": "// SPDX-License-Identifier: MIT\r\npragma solidity ^0.8.0;\r\n\r\ncontract DAODisputeResolution {\r\n    struct Dispute {\r\n        address freelancer;\r\n        address client;\r\n        string jobDescription;\r\n        bool resolved;\r\n        uint256 votesForFreelancer;\r\n        uint256 votesForClient;\r\n    }\r\n\r\n    Dispute[] public disputes;\r\n    mapping(address => bool) public members;\r\n\r\n    modifier onlyMember() {\r\n        require(members[msg.sender], \"Only DAO members can vote\");\r\n        _;\r\n    }\r\n\r\n    function addMember(address member) external {\r\n        members[member] = true;\r\n    }\r\n\r\n    function createDispute(address _client, string memory _jobDescription) external {\r\n        disputes.push(Dispute({\r\n            freelancer: msg.sender,\r\n            client: _client,\r\n            jobDescription: _jobDescription,\r\n            resolved: false,\r\n            votesForFreelancer: 0,\r\n            votesForClient: 0\r\n        }));\r\n    }\r\n\r\n    function vote(uint256 disputeId, bool voteForFreelancer) external onlyMember {\r\n        require(!disputes[disputeId].resolved, \"Dispute already resolved\");\r\n        if (voteForFreelancer) {\r\n            disputes[disputeId].votesForFreelancer++;\r\n        } else {\r\n            disputes[disputeId].votesForClient++;\r\n        }\r\n    }\r\n\r\n    function resolveDispute(uint256 disputeId) external {\r\n        require(!disputes[disputeId].resolved, \"Dispute already resolved\");\r\n        Dispute storage dispute = disputes[disputeId];\r\n        if (dispute.votesForFreelancer > dispute.votesForClient) {\r\n            // Release payment to freelancer\r\n            payable(dispute.freelancer).transfer(address(this).balance);\r\n        } else {\r\n            // Refund payment to client\r\n            payable(dispute.client).transfer(address(this).balance);\r\n        }\r\n        dispute.resolved = true;\r\n    }\r\n}",
  "sourcePath": "C:\\Users\\ankit\\OneDrive\\Documents\\modelllll\\contracts\\DAODisputeResolution.sol",
  "compiler": {
    "name": "solc",
    "version": "0.8.21+commit.d9974bed.Emscripten.clang"
  },
  "schemaVersion": "3.4.16",
  "updatedAt": "2025-02-01T11:23:09.455Z",
  "devdoc": {
    "kind": "dev",
    "methods": {},
    "version": 1
  },
  "userdoc": {
    "kind": "user",
    "methods": {},
    "version": 1
  }
}