{
  "contractName": "EscrowContract",
  "abi": [
    {
      "inputs": [
        {
          "internalType": "address",
          "name": "_freelancer",
          "type": "address"
        },
        {
          "internalType": "uint256",
          "name": "_deadline",
          "type": "uint256"
        },
        {
          "internalType": "uint256",
          "name": "_penaltyPercentage",
          "type": "uint256"
        }
      ],
      "stateMutability": "payable",
      "type": "constructor"
    },
    {
      "anonymous": false,
      "inputs": [
        {
          "indexed": false,
          "internalType": "uint256",
          "name": "amount",
          "type": "uint256"
        }
      ],
      "name": "PaymentReleased",
      "type": "event"
    },
    {
      "anonymous": false,
      "inputs": [],
      "name": "WorkSubmitted",
      "type": "event"
    },
    {
      "anonymous": false,
      "inputs": [
        {
          "indexed": false,
          "internalType": "bool",
          "name": "verified",
          "type": "bool"
        }
      ],
      "name": "WorkVerified",
      "type": "event"
    },
    {
      "inputs": [],
      "name": "client",
      "outputs": [
        {
          "internalType": "address",
          "name": "",
          "type": "address"
        }
      ],
      "stateMutability": "view",
      "type": "function"
    },
    {
      "inputs": [],
      "name": "deadline",
      "outputs": [
        {
          "internalType": "uint256",
          "name": "",
          "type": "uint256"
        }
      ],
      "stateMutability": "view",
      "type": "function"
    },
    {
      "inputs": [],
      "name": "freelancer",
      "outputs": [
        {
          "internalType": "address",
          "name": "",
          "type": "address"
        }
      ],
      "stateMutability": "view",
      "type": "function"
    },
    {
      "inputs": [],
      "name": "paymentAmount",
      "outputs": [
        {
          "internalType": "uint256",
          "name": "",
          "type": "uint256"
        }
      ],
      "stateMutability": "view",
      "type": "function"
    },
    {
      "inputs": [],
      "name": "paymentReleased",
      "outputs": [
        {
          "internalType": "bool",
          "name": "",
          "type": "bool"
        }
      ],
      "stateMutability": "view",
      "type": "function"
    },
    {
      "inputs": [],
      "name": "penaltyPercentage",
      "outputs": [
        {
          "internalType": "uint256",
          "name": "",
          "type": "uint256"
        }
      ],
      "stateMutability": "view",
      "type": "function"
    },
    {
      "inputs": [],
      "name": "workSubmitted",
      "outputs": [
        {
          "internalType": "bool",
          "name": "",
          "type": "bool"
        }
      ],
      "stateMutability": "view",
      "type": "function"
    },
    {
      "inputs": [],
      "name": "workVerified",
      "outputs": [
        {
          "internalType": "bool",
          "name": "",
          "type": "bool"
        }
      ],
      "stateMutability": "view",
      "type": "function"
    },
    {
      "inputs": [],
      "name": "submitWork",
      "outputs": [],
      "stateMutability": "nonpayable",
      "type": "function"
    },
    {
      "inputs": [
        {
          "internalType": "bool",
          "name": "verified",
          "type": "bool"
        }
      ],
      "name": "verifyWork",
      "outputs": [],
      "stateMutability": "nonpayable",
      "type": "function"
    },
    {
      "inputs": [],
      "name": "releasePayment",
      "outputs": [],
      "stateMutability": "nonpayable",
      "type": "function"
    }
  ],
  "bytecode": "0x608060405260405162000e4638038062000e46833981810160405281019062000029919062000170565b335f806101000a81548173ffffffffffffffffffffffffffffffffffffffff021916908373ffffffffffffffffffffffffffffffffffffffff1602179055508260015f6101000a81548173ffffffffffffffffffffffffffffffffffffffff021916908373ffffffffffffffffffffffffffffffffffffffff160217905550346002819055508142620000bd9190620001f6565b6003819055508060058190555050505062000230565b5f80fd5b5f73ffffffffffffffffffffffffffffffffffffffff82169050919050565b5f6200010282620000d7565b9050919050565b6200011481620000f6565b81146200011f575f80fd5b50565b5f81519050620001328162000109565b92915050565b5f819050919050565b6200014c8162000138565b811462000157575f80fd5b50565b5f815190506200016a8162000141565b92915050565b5f805f606084860312156200018a5762000189620000d3565b5b5f620001998682870162000122565b9350506020620001ac868287016200015a565b9250506040620001bf868287016200015a565b9150509250925092565b7f4e487b71000000000000000000000000000000000000000000000000000000005f52601160045260245ffd5b5f620002028262000138565b91506200020f8362000138565b92508282019050808211156200022a5762000229620001c9565b5b92915050565b610c08806200023e5f395ff3fe608060405234801561000f575f80fd5b50600436106100a7575f3560e01c8063be2ce3071161006f578063be2ce3071461013f578063c35905c61461015d578063c63735b31461017b578063c7a2577714610199578063d116c8c4146101a3578063e23b155b146101ad576100a7565b806303430a03146100ab578063109e94cf146100c757806315908d51146100e557806329dcb0cf14610103578063a37dda2c14610121575b5f80fd5b6100c560048036038101906100c09190610710565b6101cb565b005b6100cf6102fa565b6040516100dc919061077a565b60405180910390f35b6100ed61031d565b6040516100fa91906107ab565b60405180910390f35b61010b610323565b60405161011891906107ab565b60405180910390f35b610129610329565b604051610136919061077a565b60405180910390f35b61014761034e565b60405161015491906107d3565b60405180910390f35b610165610361565b60405161017291906107ab565b60405180910390f35b610183610367565b60405161019091906107d3565b60405180910390f35b6101a161037a565b005b6101ab6104a0565b005b6101b56106c5565b6040516101c291906107d3565b60405180910390f35b5f8054906101000a900473ffffffffffffffffffffffffffffffffffffffff1673ffffffffffffffffffffffffffffffffffffffff163373ffffffffffffffffffffffffffffffffffffffff1614610258576040517f08c379a000000000000000000000000000000000000000000000000000000000815260040161024f90610846565b60405180910390fd5b60045f9054906101000a900460ff166102a6576040517f08c379a000000000000000000000000000000000000000000000000000000000815260040161029d906108ae565b60405180910390fd5b80600460016101000a81548160ff0219169083151502179055507fbe74228513befcb7b72044cbe7d1060cb655ca12595609aa23bbdbd33ebe7e2b816040516102ef91906107d3565b60405180910390a150565b5f8054906101000a900473ffffffffffffffffffffffffffffffffffffffff1681565b60055481565b60035481565b60015f9054906101000a900473ffffffffffffffffffffffffffffffffffffffff1681565b600460019054906101000a900460ff1681565b60025481565b600460029054906101000a900460ff1681565b60015f9054906101000a900473ffffffffffffffffffffffffffffffffffffffff1673ffffffffffffffffffffffffffffffffffffffff163373ffffffffffffffffffffffffffffffffffffffff1614610409576040517f08c379a000000000000000000000000000000000000000000000000000000000815260040161040090610916565b60405180910390fd5b60045f9054906101000a900460ff1615610458576040517f08c379a000000000000000000000000000000000000000000000000000000000815260040161044f9061097e565b60405180910390fd5b600160045f6101000a81548160ff0219169083151502179055507f0b808243e9d7e26fc393a407b03e346bd206d83e1a99b992016e6ac452f27b4460405160405180910390a1565b5f8054906101000a900473ffffffffffffffffffffffffffffffffffffffff1673ffffffffffffffffffffffffffffffffffffffff163373ffffffffffffffffffffffffffffffffffffffff161461052d576040517f08c379a0000000000000000000000000000000000000000000000000000000008152600401610524906109e6565b60405180910390fd5b600460019054906101000a900460ff1661057c576040517f08c379a000000000000000000000000000000000000000000000000000000000815260040161057390610a4e565b60405180910390fd5b600460029054906101000a900460ff16156105cc576040517f08c379a00000000000000000000000000000000000000000000000000000000081526004016105c390610ab6565b60405180910390fd5b5f600254905060035442111561060b575f60646005546002546105ef9190610b01565b6105f99190610b6f565b905080826106079190610b9f565b9150505b60015f9054906101000a900473ffffffffffffffffffffffffffffffffffffffff1673ffffffffffffffffffffffffffffffffffffffff166108fc8290811502906040515f60405180830381858888f1935050505015801561066f573d5f803e3d5ffd5b506001600460026101000a81548160ff0219169083151502179055507f7094d01aa39ef767229e67850ef530b588b0dc1576b827e94f51a1f063007434816040516106ba91906107ab565b60405180910390a150565b60045f9054906101000a900460ff1681565b5f80fd5b5f8115159050919050565b6106ef816106db565b81146106f9575f80fd5b50565b5f8135905061070a816106e6565b92915050565b5f60208284031215610725576107246106d7565b5b5f610732848285016106fc565b91505092915050565b5f73ffffffffffffffffffffffffffffffffffffffff82169050919050565b5f6107648261073b565b9050919050565b6107748161075a565b82525050565b5f60208201905061078d5f83018461076b565b92915050565b5f819050919050565b6107a581610793565b82525050565b5f6020820190506107be5f83018461079c565b92915050565b6107cd816106db565b82525050565b5f6020820190506107e65f8301846107c4565b92915050565b5f82825260208201905092915050565b7f4f6e6c7920636c69656e742063616e2076657269667920776f726b00000000005f82015250565b5f610830601b836107ec565b915061083b826107fc565b602082019050919050565b5f6020820190508181035f83015261085d81610824565b9050919050565b7f576f726b206e6f74207375626d697474656420796574000000000000000000005f82015250565b5f6108986016836107ec565b91506108a382610864565b602082019050919050565b5f6020820190508181035f8301526108c58161088c565b9050919050565b7f4f6e6c7920667265656c616e6365722063616e207375626d697420776f726b005f82015250565b5f610900601f836107ec565b915061090b826108cc565b602082019050919050565b5f6020820190508181035f83015261092d816108f4565b9050919050565b7f576f726b20616c7265616479207375626d6974746564000000000000000000005f82015250565b5f6109686016836107ec565b915061097382610934565b602082019050919050565b5f6020820190508181035f8301526109958161095c565b9050919050565b7f4f6e6c7920636c69656e742063616e2072656c65617365207061796d656e74005f82015250565b5f6109d0601f836107ec565b91506109db8261099c565b602082019050919050565b5f6020820190508181035f8301526109fd816109c4565b9050919050565b7f576f726b206e6f742076657269666965642079657400000000000000000000005f82015250565b5f610a386015836107ec565b9150610a4382610a04565b602082019050919050565b5f6020820190508181035f830152610a6581610a2c565b9050919050565b7f5061796d656e7420616c72656164792072656c656173656400000000000000005f82015250565b5f610aa06018836107ec565b9150610aab82610a6c565b602082019050919050565b5f6020820190508181035f830152610acd81610a94565b9050919050565b7f4e487b71000000000000000000000000000000000000000000000000000000005f52601160045260245ffd5b5f610b0b82610793565b9150610b1683610793565b9250828202610b2481610793565b91508282048414831517610b3b57610b3a610ad4565b5b5092915050565b7f4e487b71000000000000000000000000000000000000000000000000000000005f52601260045260245ffd5b5f610b7982610793565b9150610b8483610793565b925082610b9457610b93610b42565b5b828204905092915050565b5f610ba982610793565b9150610bb483610793565b9250828203905081811115610bcc57610bcb610ad4565b5b9291505056fea2646970667358221220bb568bcca87a066524408719e60a715ce568a74b46db04bb2a6fa6fdb3aa73fe64736f6c63430008150033",
  "immutableReferences": {},
  "source": "// SPDX-License-Identifier: MIT\r\npragma solidity ^0.8.0;\r\n\r\ncontract EscrowContract {\r\n    address public client;\r\n    address public freelancer;\r\n    uint256 public paymentAmount;\r\n    uint256 public deadline;\r\n    bool public workSubmitted;\r\n    bool public workVerified;\r\n    bool public paymentReleased;\r\n    uint256 public penaltyPercentage;\r\n\r\n    event WorkSubmitted();\r\n    event WorkVerified(bool verified);\r\n    event PaymentReleased(uint256 amount);\r\n\r\n    constructor(address _freelancer, uint256 _deadline, uint256 _penaltyPercentage) payable {\r\n        client = msg.sender;\r\n        freelancer = _freelancer;\r\n        paymentAmount = msg.value;\r\n        deadline = block.timestamp + _deadline;\r\n        penaltyPercentage = _penaltyPercentage;\r\n    }\r\n\r\n    function submitWork() external {\r\n        require(msg.sender == freelancer, \"Only freelancer can submit work\");\r\n        require(!workSubmitted, \"Work already submitted\");\r\n        workSubmitted = true;\r\n        emit WorkSubmitted();\r\n    }\r\n\r\n    function verifyWork(bool verified) external {\r\n        require(msg.sender == client, \"Only client can verify work\");\r\n        require(workSubmitted, \"Work not submitted yet\");\r\n        workVerified = verified;\r\n        emit WorkVerified(verified);\r\n    }\r\n\r\n    function releasePayment() external {\r\n        require(msg.sender == client, \"Only client can release payment\");\r\n        require(workVerified, \"Work not verified yet\");\r\n        require(!paymentReleased, \"Payment already released\");\r\n\r\n        uint256 amountToRelease = paymentAmount;\r\n        if (block.timestamp > deadline) {\r\n            uint256 penalty = (paymentAmount * penaltyPercentage) / 100;\r\n            amountToRelease -= penalty;\r\n        }\r\n\r\n        payable(freelancer).transfer(amountToRelease);\r\n        paymentReleased = true;\r\n        emit PaymentReleased(amountToRelease);\r\n    }\r\n}\r\n",
  "sourcePath": "C:\\Users\\ankit\\OneDrive\\Documents\\modelllll\\contracts\\EscrowContract.sol",
  "compiler": {
    "name": "solc",
    "version": "0.8.21+commit.d9974bed.Emscripten.clang"
  },
  "schemaVersion": "3.4.16",
  "updatedAt": "2025-02-01T11:23:09.478Z",
  "devdoc": {
    "kind": "dev",
    "methods": {},
    "version": 1
  },
  "userdoc": {
    "kind": "user",
    "methods": {},
    "version": 1
  }
}